{
  "contractName": "BeePayments",
  "abi": [
    {
      "constant": false,
      "inputs": [
        {
          "name": "paymentId",
          "type": "bytes32"
        }
      ],
      "name": "dispatchPayment",
      "outputs": [],
      "payable": false,
      "stateMutability": "nonpayable",
      "type": "function"
    },
    {
      "constant": false,
      "inputs": [
        {
          "name": "paymentId",
          "type": "bytes32"
        },
        {
          "name": "arbitrationFee_",
          "type": "uint256"
        }
      ],
      "name": "disputePayment",
      "outputs": [
        {
          "name": "success",
          "type": "bool"
        }
      ],
      "payable": false,
      "stateMutability": "nonpayable",
      "type": "function"
    },
    {
      "constant": false,
      "inputs": [
        {
          "name": "arbitrationAddress_",
          "type": "address"
        }
      ],
      "name": "updateArbitrationAddress",
      "outputs": [],
      "payable": false,
      "stateMutability": "nonpayable",
      "type": "function"
    },
    {
      "constant": true,
      "inputs": [],
      "name": "arbitrationAddress",
      "outputs": [
        {
          "name": "",
          "type": "address"
        }
      ],
      "payable": false,
      "stateMutability": "view",
      "type": "function"
    },
    {
      "constant": false,
      "inputs": [
        {
          "name": "paymentId",
          "type": "bytes32[]"
        }
      ],
      "name": "dispatchPayments",
      "outputs": [],
      "payable": false,
      "stateMutability": "nonpayable",
      "type": "function"
    },
    {
      "constant": false,
      "inputs": [
        {
          "name": "paymentId",
          "type": "bytes32"
        }
      ],
      "name": "pay",
      "outputs": [
        {
          "name": "success",
          "type": "bool"
        }
      ],
      "payable": false,
      "stateMutability": "nonpayable",
      "type": "function"
    },
    {
      "constant": true,
      "inputs": [],
      "name": "owner",
      "outputs": [
        {
          "name": "",
          "type": "address"
        }
      ],
      "payable": false,
      "stateMutability": "view",
      "type": "function"
    },
    {
      "constant": false,
      "inputs": [
        {
          "name": "paymentId",
          "type": "bytes32"
        }
      ],
      "name": "cancelPayment",
      "outputs": [
        {
          "name": "success",
          "type": "bool"
        }
      ],
      "payable": false,
      "stateMutability": "nonpayable",
      "type": "function"
    },
    {
      "constant": true,
      "inputs": [
        {
          "name": "",
          "type": "bytes32"
        }
      ],
      "name": "allPayments",
      "outputs": [
        {
          "name": "exist",
          "type": "bool"
        },
        {
          "name": "paymentStatus",
          "type": "uint8"
        },
        {
          "name": "paymentId",
          "type": "bytes32"
        },
        {
          "name": "paymentTokenContractAddress",
          "type": "address"
        },
        {
          "name": "supplyEntityAddress",
          "type": "address"
        },
        {
          "name": "demandEntityAddress",
          "type": "address"
        },
        {
          "name": "cost",
          "type": "uint256"
        },
        {
          "name": "securityDeposit",
          "type": "uint256"
        },
        {
          "name": "demandCancellationFee",
          "type": "uint256"
        },
        {
          "name": "supplyCancellationFee",
          "type": "uint256"
        },
        {
          "name": "cancelDeadlineInS",
          "type": "uint256"
        },
        {
          "name": "paymentDispatchTimeInS",
          "type": "uint256"
        },
        {
          "name": "demandPaid",
          "type": "bool"
        },
        {
          "name": "supplyPaid",
          "type": "bool"
        }
      ],
      "payable": false,
      "stateMutability": "view",
      "type": "function"
    },
    {
      "constant": true,
      "inputs": [
        {
          "name": "paymentId",
          "type": "bytes32"
        }
      ],
      "name": "getPaymentStatus",
      "outputs": [
        {
          "components": [
            {
              "name": "exist",
              "type": "bool"
            },
            {
              "name": "paymentStatus",
              "type": "uint8"
            },
            {
              "name": "paymentId",
              "type": "bytes32"
            },
            {
              "name": "paymentTokenContractAddress",
              "type": "address"
            },
            {
              "name": "supplyEntityAddress",
              "type": "address"
            },
            {
              "name": "demandEntityAddress",
              "type": "address"
            },
            {
              "name": "cost",
              "type": "uint256"
            },
            {
              "name": "securityDeposit",
              "type": "uint256"
            },
            {
              "name": "demandCancellationFee",
              "type": "uint256"
            },
            {
              "name": "supplyCancellationFee",
              "type": "uint256"
            },
            {
              "name": "cancelDeadlineInS",
              "type": "uint256"
            },
            {
              "name": "paymentDispatchTimeInS",
              "type": "uint256"
            },
            {
              "name": "demandPaid",
              "type": "bool"
            },
            {
              "name": "supplyPaid",
              "type": "bool"
            }
          ],
          "name": "",
          "type": "tuple"
        }
      ],
      "payable": false,
      "stateMutability": "view",
      "type": "function"
    },
    {
      "constant": false,
      "inputs": [
        {
          "name": "newOwner",
          "type": "address"
        }
      ],
      "name": "transferOwnership",
      "outputs": [],
      "payable": false,
      "stateMutability": "nonpayable",
      "type": "function"
    },
    {
      "constant": false,
      "inputs": [
        {
          "name": "paymentId",
          "type": "bytes32"
        },
        {
          "name": "paymentTokenContractAddress",
          "type": "address"
        },
        {
          "name": "demandEntityAddress",
          "type": "address"
        },
        {
          "name": "supplyEntityAddress",
          "type": "address"
        },
        {
          "name": "cost",
          "type": "uint256"
        },
        {
          "name": "securityDeposit",
          "type": "uint256"
        },
        {
          "name": "demandCancellationFee",
          "type": "uint256"
        },
        {
          "name": "supplyCancellationFee",
          "type": "uint256"
        },
        {
          "name": "cancelDeadlineInS",
          "type": "uint256"
        },
        {
          "name": "paymentDispatchTimeInS",
          "type": "uint256"
        }
      ],
      "name": "initPayment",
      "outputs": [
        {
          "name": "success",
          "type": "bool"
        }
      ],
      "payable": false,
      "stateMutability": "nonpayable",
      "type": "function"
    },
    {
      "inputs": [
        {
          "name": "arbitrationAddress_",
          "type": "address"
        }
      ],
      "payable": false,
      "stateMutability": "nonpayable",
      "type": "constructor"
    },
    {
      "payable": true,
      "stateMutability": "payable",
      "type": "fallback"
    },
    {
      "anonymous": false,
      "inputs": [
        {
          "indexed": true,
          "name": "previousOwner",
          "type": "address"
        },
        {
          "indexed": true,
          "name": "newOwner",
          "type": "address"
        }
      ],
      "name": "OwnershipTransferred",
      "type": "event"
    }
  ],
  "bytecode": "0x6060604052341561000f57600080fd5b6040516020806122c583398101604052808051906020019091905050336000806101000a81548173ffffffffffffffffffffffffffffffffffffffff021916908373ffffffffffffffffffffffffffffffffffffffff16021790555080600160006101000a81548173ffffffffffffffffffffffffffffffffffffffff021916908373ffffffffffffffffffffffffffffffffffffffff16021790555050612209806100bc6000396000f3006060604052600436106100ba576000357c0100000000000000000000000000000000000000000000000000000000900463ffffffff168063026c7692146100bf5780634df9a05a146100e657806361e968b41461012e5780637050565314610167578063742cab98146101bc5780638609cad1146101ea5780638da5cb5b14610229578063c46e96781461027e578063daf598b0146102bd578063f0013c03146103f9578063f2fde38b14610434578063f3d8d68e1461046d575b600080fd5b34156100ca57600080fd5b6100e460048080356000191690602001909190505061053f565b005b34156100f157600080fd5b610114600480803560001916906020019091908035906020019091905050610827565b604051808215151515815260200191505060405180910390f35b341561013957600080fd5b610165600480803573ffffffffffffffffffffffffffffffffffffffff16906020019091905050610c3a565b005b341561017257600080fd5b61017a610cd9565b604051808273ffffffffffffffffffffffffffffffffffffffff1673ffffffffffffffffffffffffffffffffffffffff16815260200191505060405180910390f35b34156101c757600080fd5b6101e860048080359060200190820180359060200191909192905050610cff565b005b34156101f557600080fd5b61020f600480803560001916906020019091905050610d43565b604051808215151515815260200191505060405180910390f35b341561023457600080fd5b61023c61120b565b604051808273ffffffffffffffffffffffffffffffffffffffff1673ffffffffffffffffffffffffffffffffffffffff16815260200191505060405180910390f35b341561028957600080fd5b6102a3600480803560001916906020019091905050611230565b604051808215151515815260200191505060405180910390f35b34156102c857600080fd5b6102e2600480803560001916906020019091905050611937565b604051808f1515151581526020018e60058111156102fc57fe5b60ff1681526020018d600019166000191681526020018c73ffffffffffffffffffffffffffffffffffffffff1673ffffffffffffffffffffffffffffffffffffffff1681526020018b73ffffffffffffffffffffffffffffffffffffffff1673ffffffffffffffffffffffffffffffffffffffff1681526020018a73ffffffffffffffffffffffffffffffffffffffff1673ffffffffffffffffffffffffffffffffffffffff16815260200189815260200188815260200187815260200186815260200185815260200184815260200183151515158152602001821515151581526020019e50505050505050505050505050505060405180910390f35b341561040457600080fd5b61041e600480803560001916906020019091905050611a37565b6040518082815260200191505060405180910390f35b341561043f57600080fd5b61046b600480803573ffffffffffffffffffffffffffffffffffffffff16906020019091905050611c77565b005b341561047857600080fd5b61052560048080356000191690602001909190803573ffffffffffffffffffffffffffffffffffffffff1690602001909190803573ffffffffffffffffffffffffffffffffffffffff1690602001909190803573ffffffffffffffffffffffffffffffffffffffff16906020019091908035906020019091908035906020019091908035906020019091908035906020019091908035906020019091908035906020019091905050611dcc565b604051808215151515815260200191505060405180910390f35b60008060008084600280600581111561055457fe5b60026000846000191660001916815260200190815260200160002060000160019054906101000a900460ff16600581111561058b57fe5b14151561059757600080fd5b60026000886000191660001916815260200190815260200160002095508560020160009054906101000a900473ffffffffffffffffffffffffffffffffffffffff1694504286600a0154111515156105ee57600080fd5b610600866008015487600501546120f9565b9350610614866007015487600601546120f9565b92508473ffffffffffffffffffffffffffffffffffffffff1663a9059cbb8760030160009054906101000a900473ffffffffffffffffffffffffffffffffffffffff16866000604051602001526040518363ffffffff167c0100000000000000000000000000000000000000000000000000000000028152600401808373ffffffffffffffffffffffffffffffffffffffff1673ffffffffffffffffffffffffffffffffffffffff16815260200182815260200192505050602060405180830381600087803b15156106e557600080fd5b6102c65a03f115156106f657600080fd5b5050506040518051905080156107f257508473ffffffffffffffffffffffffffffffffffffffff1663a9059cbb8760040160009054906101000a900473ffffffffffffffffffffffffffffffffffffffff16856000604051602001526040518363ffffffff167c0100000000000000000000000000000000000000000000000000000000028152600401808373ffffffffffffffffffffffffffffffffffffffff1673ffffffffffffffffffffffffffffffffffffffff16815260200182815260200192505050602060405180830381600087803b15156107d657600080fd5b6102c65a03f115156107e757600080fd5b505050604051805190505b1561081e5760058660000160016101000a81548160ff0219169083600581111561081857fe5b02179055505b50505050505050565b60008060008060008660026000826000191660001916815260200190815260200160002060040160009054906101000a900473ffffffffffffffffffffffffffffffffffffffff1673ffffffffffffffffffffffffffffffffffffffff163373ffffffffffffffffffffffffffffffffffffffff161480610911575060026000826000191660001916815260200190815260200160002060030160009054906101000a900473ffffffffffffffffffffffffffffffffffffffff1673ffffffffffffffffffffffffffffffffffffffff163373ffffffffffffffffffffffffffffffffffffffff16145b151561091c57600080fd5b87600280600581111561092b57fe5b60026000846000191660001916815260200190815260200160002060000160019054906101000a900460ff16600581111561096257fe5b14151561096e57600080fd5b600260008b6000191660001916815260200190815260200160002096508660020160009054906101000a900473ffffffffffffffffffffffffffffffffffffffff1695508894506109e187600601546109dc89600701546109d78b600501548c600801546120f9565b6120f9565b6120f9565b93508573ffffffffffffffffffffffffffffffffffffffff166323b872dd33600160009054906101000a900473ffffffffffffffffffffffffffffffffffffffff16886000604051602001526040518463ffffffff167c0100000000000000000000000000000000000000000000000000000000028152600401808473ffffffffffffffffffffffffffffffffffffffff1673ffffffffffffffffffffffffffffffffffffffff1681526020018373ffffffffffffffffffffffffffffffffffffffff1673ffffffffffffffffffffffffffffffffffffffff1681526020018281526020019350505050602060405180830381600087803b1515610ae457600080fd5b6102c65a03f11515610af557600080fd5b505050604051805190508015610bef57508573ffffffffffffffffffffffffffffffffffffffff1663a9059cbb600160009054906101000a900473ffffffffffffffffffffffffffffffffffffffff16866000604051602001526040518363ffffffff167c0100000000000000000000000000000000000000000000000000000000028152600401808373ffffffffffffffffffffffffffffffffffffffff1673ffffffffffffffffffffffffffffffffffffffff16815260200182815260200192505050602060405180830381600087803b1515610bd357600080fd5b6102c65a03f11515610be457600080fd5b505050604051805190505b15610c1f5760038760000160016101000a81548160ff02191690836005811115610c1557fe5b0217905550610c28565b60009750610c2d565b600197505b5050505050505092915050565b6000809054906101000a900473ffffffffffffffffffffffffffffffffffffffff1673ffffffffffffffffffffffffffffffffffffffff163373ffffffffffffffffffffffffffffffffffffffff16141515610c9557600080fd5b80600160006101000a81548173ffffffffffffffffffffffffffffffffffffffff021916908373ffffffffffffffffffffffffffffffffffffffff16021790555050565b600160009054906101000a900473ffffffffffffffffffffffffffffffffffffffff1681565b60008090505b82829050811015610d3e57610d318383838181101515610d2157fe5b905060200201356000191661053f565b8080600101915050610d05565b505050565b600080600080846001806005811115610d5857fe5b60026000846000191660001916815260200190815260200160002060000160019054906101000a900460ff166005811115610d8f57fe5b141515610d9b57600080fd5b8660026000826000191660001916815260200190815260200160002060040160009054906101000a900473ffffffffffffffffffffffffffffffffffffffff1673ffffffffffffffffffffffffffffffffffffffff163373ffffffffffffffffffffffffffffffffffffffff161480610e7d575060026000826000191660001916815260200190815260200160002060030160009054906101000a900473ffffffffffffffffffffffffffffffffffffffff1673ffffffffffffffffffffffffffffffffffffffff163373ffffffffffffffffffffffffffffffffffffffff16145b1515610e8857600080fd5b60026000896000191660001916815260200190815260200160002095508560020160009054906101000a900473ffffffffffffffffffffffffffffffffffffffff1694508560040160009054906101000a900473ffffffffffffffffffffffffffffffffffffffff1673ffffffffffffffffffffffffffffffffffffffff163373ffffffffffffffffffffffffffffffffffffffff16141561107457610f438660060154610f3e886007015489600501546120f9565b6120f9565b93508473ffffffffffffffffffffffffffffffffffffffff166323b872dd3330876000604051602001526040518463ffffffff167c0100000000000000000000000000000000000000000000000000000000028152600401808473ffffffffffffffffffffffffffffffffffffffff1673ffffffffffffffffffffffffffffffffffffffff1681526020018373ffffffffffffffffffffffffffffffffffffffff1673ffffffffffffffffffffffffffffffffffffffff1681526020018281526020019350505050602060405180830381600087803b151561102457600080fd5b6102c65a03f1151561103557600080fd5b505050604051805190501561106657600186600b0160006101000a81548160ff02191690831515021790555061106f565b60009650611200565b6111a3565b8473ffffffffffffffffffffffffffffffffffffffff166323b872dd333089600801546000604051602001526040518463ffffffff167c0100000000000000000000000000000000000000000000000000000000028152600401808473ffffffffffffffffffffffffffffffffffffffff1673ffffffffffffffffffffffffffffffffffffffff1681526020018373ffffffffffffffffffffffffffffffffffffffff1673ffffffffffffffffffffffffffffffffffffffff1681526020018281526020019350505050602060405180830381600087803b151561115757600080fd5b6102c65a03f1151561116857600080fd5b505050604051805190501561119957600186600b0160016101000a81548160ff0219169083151502179055506111a2565b60009650611200565b5b85600b0160009054906101000a900460ff1680156111cf575085600b0160019054906101000a900460ff165b156111fb5760028660000160016101000a81548160ff021916908360058111156111f557fe5b02179055505b600196505b505050505050919050565b6000809054906101000a900473ffffffffffffffffffffffffffffffffffffffff1681565b60008060008060008560026000826000191660001916815260200190815260200160002060040160009054906101000a900473ffffffffffffffffffffffffffffffffffffffff1673ffffffffffffffffffffffffffffffffffffffff163373ffffffffffffffffffffffffffffffffffffffff16148061131a575060026000826000191660001916815260200190815260200160002060030160009054906101000a900473ffffffffffffffffffffffffffffffffffffffff1673ffffffffffffffffffffffffffffffffffffffff163373ffffffffffffffffffffffffffffffffffffffff16145b151561132557600080fd5b60026000886000191660001916815260200190815260200160002094508460020160009054906101000a900473ffffffffffffffffffffffffffffffffffffffff169350428560090154101561159057611394856006015461138f876007015488600501546120f9565b6120f9565b92508373ffffffffffffffffffffffffffffffffffffffff1663a9059cbb33856000604051602001526040518363ffffffff167c0100000000000000000000000000000000000000000000000000000000028152600401808373ffffffffffffffffffffffffffffffffffffffff1673ffffffffffffffffffffffffffffffffffffffff16815260200182815260200192505050602060405180830381600087803b151561144157600080fd5b6102c65a03f1151561145257600080fd5b50505060405180519050801561155257508373ffffffffffffffffffffffffffffffffffffffff1663a9059cbb8660030160009054906101000a900473ffffffffffffffffffffffffffffffffffffffff1687600801546000604051602001526040518363ffffffff167c0100000000000000000000000000000000000000000000000000000000028152600401808373ffffffffffffffffffffffffffffffffffffffff1673ffffffffffffffffffffffffffffffffffffffff16815260200182815260200192505050602060405180830381600087803b151561153657600080fd5b6102c65a03f1151561154757600080fd5b505050604051805190505b156115825760048560000160016101000a81548160ff0219169083600581111561157857fe5b021790555061158b565b6000955061192d565b611928565b8460040160009054906101000a900473ffffffffffffffffffffffffffffffffffffffff1673ffffffffffffffffffffffffffffffffffffffff163373ffffffffffffffffffffffffffffffffffffffff161415611806576115fa856006015486600501546120f9565b925061160e856008015486600701546120f9565b91508373ffffffffffffffffffffffffffffffffffffffff1663a9059cbb33856000604051602001526040518363ffffffff167c0100000000000000000000000000000000000000000000000000000000028152600401808373ffffffffffffffffffffffffffffffffffffffff1673ffffffffffffffffffffffffffffffffffffffff16815260200182815260200192505050602060405180830381600087803b15156116bb57600080fd5b6102c65a03f115156116cc57600080fd5b5050506040518051905080156117c857508373ffffffffffffffffffffffffffffffffffffffff1663a9059cbb8660030160009054906101000a900473ffffffffffffffffffffffffffffffffffffffff16846000604051602001526040518363ffffffff167c0100000000000000000000000000000000000000000000000000000000028152600401808373ffffffffffffffffffffffffffffffffffffffff1673ffffffffffffffffffffffffffffffffffffffff16815260200182815260200192505050602060405180830381600087803b15156117ac57600080fd5b6102c65a03f115156117bd57600080fd5b505050604051805190505b156117f85760048560000160016101000a81548160ff021916908360058111156117ee57fe5b0217905550611801565b6000955061192d565b611927565b611832856006015461182d876005015461182889600801548a600701546120f9565b6120f9565b6120f9565b92508373ffffffffffffffffffffffffffffffffffffffff1663a9059cbb33856000604051602001526040518363ffffffff167c0100000000000000000000000000000000000000000000000000000000028152600401808373ffffffffffffffffffffffffffffffffffffffff1673ffffffffffffffffffffffffffffffffffffffff16815260200182815260200192505050602060405180830381600087803b15156118df57600080fd5b6102c65a03f115156118f057600080fd5b50505060405180519050156119265760048560000160016101000a81548160ff0219169083600581111561192057fe5b02179055505b5b5b600195505b5050505050919050565b60026020528060005260406000206000915090508060000160009054906101000a900460ff16908060000160019054906101000a900460ff16908060010154908060020160009054906101000a900473ffffffffffffffffffffffffffffffffffffffff16908060030160009054906101000a900473ffffffffffffffffffffffffffffffffffffffff16908060040160009054906101000a900473ffffffffffffffffffffffffffffffffffffffff169080600501549080600601549080600701549080600801549080600901549080600a01549080600b0160009054906101000a900460ff169080600b0160019054906101000a900460ff1690508e565b611a3f612117565b60026000836000191660001916815260200190815260200160002060000160009054906101000a900460ff1615611c6d576002600083600019166000191681526020019081526020016000206101c060405190810160405290816000820160009054906101000a900460ff161515151581526020016000820160019054906101000a900460ff166005811115611ad157fe5b6005811115611adc57fe5b81526020016001820154600019166000191681526020016002820160009054906101000a900473ffffffffffffffffffffffffffffffffffffffff1673ffffffffffffffffffffffffffffffffffffffff1673ffffffffffffffffffffffffffffffffffffffff1681526020016003820160009054906101000a900473ffffffffffffffffffffffffffffffffffffffff1673ffffffffffffffffffffffffffffffffffffffff1673ffffffffffffffffffffffffffffffffffffffff1681526020016004820160009054906101000a900473ffffffffffffffffffffffffffffffffffffffff1673ffffffffffffffffffffffffffffffffffffffff1673ffffffffffffffffffffffffffffffffffffffff1681526020016005820154815260200160068201548152602001600782015481526020016008820154815260200160098201548152602001600a8201548152602001600b820160009054906101000a900460ff16151515158152602001600b820160019054906101000a900460ff1615151515815250509050611c72565b600080fd5b919050565b6000809054906101000a900473ffffffffffffffffffffffffffffffffffffffff1673ffffffffffffffffffffffffffffffffffffffff163373ffffffffffffffffffffffffffffffffffffffff16141515611cd257600080fd5b600073ffffffffffffffffffffffffffffffffffffffff168173ffffffffffffffffffffffffffffffffffffffff1614151515611d0e57600080fd5b8073ffffffffffffffffffffffffffffffffffffffff166000809054906101000a900473ffffffffffffffffffffffffffffffffffffffff1673ffffffffffffffffffffffffffffffffffffffff167f8be0079c531659141344cd1fd0a4f28419497f9722a3daafe3b4186f6b6457e060405160405180910390a3806000806101000a81548173ffffffffffffffffffffffffffffffffffffffff021916908373ffffffffffffffffffffffffffffffffffffffff16021790555050565b60008060009054906101000a900473ffffffffffffffffffffffffffffffffffffffff1673ffffffffffffffffffffffffffffffffffffffff163373ffffffffffffffffffffffffffffffffffffffff16141515611e2957600080fd5b600260008c6000191660001916815260200190815260200160002060000160009054906101000a900460ff1615611e5f57600080fd5b6101c06040519081016040528060011515815260200160016005811115611e8257fe5b81526020018c6000191681526020018b73ffffffffffffffffffffffffffffffffffffffff1681526020018a73ffffffffffffffffffffffffffffffffffffffff1681526020018973ffffffffffffffffffffffffffffffffffffffff16815260200188815260200187815260200186815260200185815260200184815260200183815260200160001515815260200160001515815250600260008d6000191660001916815260200190815260200160002060008201518160000160006101000a81548160ff02191690831515021790555060208201518160000160016101000a81548160ff02191690836005811115611f7857fe5b02179055506040820151816001019060001916905560608201518160020160006101000a81548173ffffffffffffffffffffffffffffffffffffffff021916908373ffffffffffffffffffffffffffffffffffffffff16021790555060808201518160030160006101000a81548173ffffffffffffffffffffffffffffffffffffffff021916908373ffffffffffffffffffffffffffffffffffffffff16021790555060a08201518160040160006101000a81548173ffffffffffffffffffffffffffffffffffffffff021916908373ffffffffffffffffffffffffffffffffffffffff16021790555060c0820151816005015560e0820151816006015561010082015181600701556101208201518160080155610140820151816009015561016082015181600a015561018082015181600b0160006101000a81548160ff0219169083151502179055506101a082015181600b0160016101000a81548160ff021916908315150217905550905050600190509a9950505050505050505050565b600080828401905083811015151561210d57fe5b8091505092915050565b6101c0604051908101604052806000151581526020016000600581111561213a57fe5b815260200160008019168152602001600073ffffffffffffffffffffffffffffffffffffffff168152602001600073ffffffffffffffffffffffffffffffffffffffff168152602001600073ffffffffffffffffffffffffffffffffffffffff16815260200160008152602001600081526020016000815260200160008152602001600081526020016000815260200160001515815260200160001515815250905600a165627a7a72305820babe94eefb656eff325b11bbf4ef5948f5bf0ad439ab32f3217587c2679778260029",
  "source": "pragma solidity ^0.4.18;\n\nimport '../node_modules/zeppelin-solidity/contracts/token/ERC20.sol';\nimport '../node_modules/zeppelin-solidity/contracts/math/SafeMath.sol';\nimport '../node_modules/zeppelin-solidity/contracts/ownership/Ownable.sol';\n\n\ncontract BeePayments is Ownable { \n    \n    \n    using SafeMath for uint;\n    address public arbitrationAddress;\n\n    enum PaymentStatus {\n        NOT_FOUND,      // payment does not exist\n        INITIALIZED,    // awaiting payment from supply & demand entities\n        IN_PROGRESS,    // awaiting dispatch time to pass, or a dispute\n        IN_ARBITRATION, // dispute has been raised, to be handled by Arbitration\n        CANCELED,       // payment canceled \n        COMPLETED       // payment successful \n    }\n\n    // We can call functions inside of structs. Might be nice to have a callback in here\n    struct PaymentStruct {\n        bool exist;\n        PaymentStatus paymentStatus;\n        bytes32 paymentId; // keccak256 hash of all fields\n        address paymentTokenContractAddress;\n        address supplyEntityAddress;\n        address demandEntityAddress;\n        uint cost;\n        uint securityDeposit;\n        uint demandCancellationFee;\n        uint supplyCancellationFee;\n        uint cancelDeadlineInS;\n        uint paymentDispatchTimeInS;\n        bool demandPaid;\n        bool supplyPaid;\n    }\n    \n    // TODO: define events\n    //event Pay();\n    //event CancelPayment();\n    //event DisputePayment();\n\n    // TODO: define modifiers\n    modifier demandPaid(bytes32 paymentId) {\n        _;\n    }\n    \n    modifier supplyPaid(bytes32 paymentId) {\n        _;\n    }\n\n    modifier demandOrSupplyEntity(bytes32 paymentId) {\n        require(\n            msg.sender == allPayments[paymentId].demandEntityAddress ||\n            msg.sender == allPayments[paymentId].supplyEntityAddress\n        );\n        _;\n    }\n\n    modifier onlyPaymentStatus(bytes32 paymentId, PaymentStatus paymentStatus) {\n        require(allPayments[paymentId].paymentStatus == paymentStatus);\n        _;\n    }\n    \n    // maps the paymentIds to the struct\n    mapping (bytes32 => PaymentStruct) public allPayments;\n    \n    function BeePayments(address arbitrationAddress_) public {\n        arbitrationAddress = arbitrationAddress_;\n    }\n\n    function () public payable {\n        revert();\n    }\n    \n    function updateArbitrationAddress(address arbitrationAddress_) public onlyOwner {\n        arbitrationAddress = arbitrationAddress_;\n    }\n    \n    /**\n     * Initializes a new payment, and awaits for supply & demand entities to\n     * pay.\n     * \n     * @return a payment id for the caller to keep.\n     */\n    function initPayment(\n        bytes32 paymentId,\n        address paymentTokenContractAddress,\n        address demandEntityAddress,\n        address supplyEntityAddress,\n        uint cost,\n        uint securityDeposit,\n        uint demandCancellationFee,\n        uint supplyCancellationFee,\n        uint cancelDeadlineInS,\n        uint paymentDispatchTimeInS\n    ) public onlyOwner returns(bool success)\n    {\n        if (allPayments[paymentId].exist) {\n            revert();\n            // return false;\n        }\n\n        allPayments[paymentId] = PaymentStruct(\n            true,\n            PaymentStatus.INITIALIZED,\n            paymentId,\n            paymentTokenContractAddress,\n            demandEntityAddress,\n            supplyEntityAddress,\n            cost,\n            securityDeposit,\n            demandCancellationFee,\n            supplyCancellationFee,\n            cancelDeadlineInS,\n            paymentDispatchTimeInS,\n            false,\n            false\n        );\n        return true;\n    }\n    \n    /**\n     * To be invoked by entities to pay.\n     */\n    // must call approve on token contract to allow pay to transfer on their behalf\n    function pay(\n        bytes32 paymentId\n    ) public\n    onlyPaymentStatus(paymentId, PaymentStatus.INITIALIZED)\n    demandOrSupplyEntity(paymentId)\n    returns (bool success)\n    {\n        PaymentStruct storage payment = allPayments[paymentId];\n        ERC20 tokenContract = ERC20(payment.paymentTokenContractAddress);\n        if (msg.sender == payment.demandEntityAddress) {\n            uint256 amountToPay = SafeMath.add(\n                payment.securityDeposit,\n                SafeMath.add(\n                    payment.demandCancellationFee,\n                    payment.cost\n                )\n            );\n            if (tokenContract.transferFrom(msg.sender, this, amountToPay)) {\n                payment.demandPaid = true;\n            } else {\n                return false;\n            }\n        } else {\n            if (tokenContract.transferFrom(msg.sender, this, payment.supplyCancellationFee)) {\n                payment.supplyPaid = true;\n            } else {\n                return false;\n            }\n        }\n\n        if (payment.demandPaid && payment.supplyPaid) {\n            payment.paymentStatus = PaymentStatus.IN_PROGRESS;\n        }\n        return true;\n    }\n    \n    function dispatchPayment(bytes32 paymentId) public onlyPaymentStatus(paymentId, PaymentStatus.IN_PROGRESS) {\n        PaymentStruct storage payment = allPayments[paymentId];\n        ERC20 tokenContract = ERC20(payment.paymentTokenContractAddress);\n        require(payment.paymentDispatchTimeInS <= now);\n        \n        uint supplyPayout = SafeMath.add(payment.supplyCancellationFee, payment.cost);\n        uint demandPayout = SafeMath.add(payment.demandCancellationFee, payment.securityDeposit);\n        \n        if (tokenContract.transfer(payment.supplyEntityAddress, supplyPayout)\n            && tokenContract.transfer(payment.demandEntityAddress, demandPayout)) {\n            payment.paymentStatus = PaymentStatus.COMPLETED;\n        }\n    }\n    /**\n     * Dispatches in progress payments daily based on paymentDispatchTimeInS.\n     * This will only be the happy path\n     */\n    // Make a function to get the list of inProgress payments mapping. \n    function dispatchPayments(bytes32[] paymentId) external {\n        // TODO: check daily in progress payments, and pay appropirate accounts.\n        // TODO: move successful payments from in progress to completed\n        // check gas costs - limit iterating through every IN_PROGRESS payment\n        \n        for (uint i = 0; i < paymentId.length; i++) {\n            dispatchPayment(paymentId[i]);\n        }\n    }\n    \n    /**\n     * Cancels that payment in progress. Runs canclation rules as appropriate.\n     * @return true if cancel is successful, false otherwise\n     */ \n    function cancelPayment(bytes32 paymentId) public demandOrSupplyEntity(paymentId) returns(bool success) {\n        PaymentStruct storage payment = allPayments[paymentId];\n        ERC20 tokenContract = ERC20(payment.paymentTokenContractAddress);\n        // replace now with oracle time\n        if (payment.cancelDeadlineInS < now) {\n            uint amountReturnedDemand = SafeMath.add(\n                payment.securityDeposit,\n                SafeMath.add(\n                    payment.demandCancellationFee,\n                    payment.cost\n                )\n            );\n            if (tokenContract.transfer(msg.sender, amountReturnedDemand)\n                && tokenContract.transfer(payment.supplyEntityAddress, payment.supplyCancellationFee)) {\n                payment.paymentStatus = PaymentStatus.CANCELED;\n            } else {\n                return false;\n            }\n        } else {\n            if (msg.sender == payment.demandEntityAddress) {\n            // transfer demandCancellationFee to supply entity\n                amountReturnedDemand = SafeMath.add(\n                    payment.securityDeposit,\n                    payment.cost\n                );\n                uint amountReturnedSupply = SafeMath.add(\n                    payment.supplyCancellationFee,\n                    payment.demandCancellationFee\n                );\n                if (tokenContract.transfer(msg.sender, amountReturnedDemand)\n                    && tokenContract.transfer(payment.supplyEntityAddress, amountReturnedSupply)) {\n                    payment.paymentStatus = PaymentStatus.CANCELED;\n                } else {\n                    return false;\n                }\n            } else {\n                amountReturnedDemand = SafeMath.add(\n                    payment.securityDeposit,\n                    SafeMath.add(\n                        payment.cost,\n                        SafeMath.add(\n                            payment.supplyCancellationFee,\n                            payment.demandCancellationFee)\n                    )\n                );\n                if (tokenContract.transfer(msg.sender, amountReturnedDemand)) {\n                    payment.paymentStatus = PaymentStatus.CANCELED;\n                }\n            }\n        }\n        return true;\n    }\n    /**\n     * Moves the in progress payment into arbitration.\n     * Needs web3 approve call\n     */ \n    \n    function disputePayment(bytes32 paymentId, uint arbitrationFee_) \n    public\n    demandOrSupplyEntity(paymentId)\n    onlyPaymentStatus(paymentId, PaymentStatus.IN_PROGRESS)\n    returns(bool success)\n    {\n        // TODO: pass escrow to Bee Arbitration protocol\n        // TODO: move from in progress to arbitration\n        PaymentStruct storage payment = allPayments[paymentId];\n        ERC20 tokenContract = ERC20(payment.paymentTokenContractAddress);\n        uint256 arbitrationFee = arbitrationFee_;\n        uint256 total = SafeMath.add(\n            payment.securityDeposit,\n            SafeMath.add(\n                payment.demandCancellationFee,\n                SafeMath.add(\n                    payment.cost,\n                    payment.supplyCancellationFee\n                )\n            )\n        ); \n        \n        if (tokenContract.transferFrom(msg.sender, arbitrationAddress, arbitrationFee)\n            && tokenContract.transfer(arbitrationAddress, total)) {\n            payment.paymentStatus = PaymentStatus.IN_ARBITRATION;\n        } else {\n            return false;\n        }\n        return true;  \n    }\n    /**\n     * Used to get all info about the payment.\n     * @return all info of the payment, including payment id and status.\n     */\n    // Will not work until solidity version updates with #3272\n    function getPaymentStatus(bytes32 paymentId) public view returns(PaymentStruct) {\n        if (allPayments[paymentId].exist) {\n            return allPayments[paymentId];\n        } else {\n            revert();\n        }\n    }\n}\n",
  "sourcePath": "/Users/boyxgc/GitHub/BeeToken/smartcontracts/contracts/BeePayments.sol",
  "compiler": {
    "name": "solc",
    "version": "0.4.18+commit.9cf6e910.Emscripten.clang"
  },
  "schemaVersion": "1.0.1",
  "updatedAt": "2018-01-16T00:35:44.756Z"
}