{
  "contractName": "BeeTokenOffering",
  "abi": [
    {
      "constant": true,
      "inputs": [
        {
          "name": "",
          "type": "address"
        }
      ],
      "name": "whitelistA",
      "outputs": [
        {
          "name": "",
          "type": "bool"
        }
      ],
      "payable": false,
      "stateMutability": "view",
      "type": "function"
    },
    {
      "constant": true,
      "inputs": [],
      "name": "uncappedTime",
      "outputs": [
        {
          "name": "",
          "type": "uint256"
        }
      ],
      "payable": false,
      "stateMutability": "view",
      "type": "function"
    },
    {
      "constant": true,
      "inputs": [
        {
          "name": "",
          "type": "address"
        }
      ],
      "name": "whitelistD",
      "outputs": [
        {
          "name": "",
          "type": "bool"
        }
      ],
      "payable": false,
      "stateMutability": "view",
      "type": "function"
    },
    {
      "constant": true,
      "inputs": [],
      "name": "rate",
      "outputs": [
        {
          "name": "",
          "type": "uint256"
        }
      ],
      "payable": false,
      "stateMutability": "view",
      "type": "function"
    },
    {
      "constant": true,
      "inputs": [],
      "name": "endTime",
      "outputs": [
        {
          "name": "",
          "type": "uint256"
        }
      ],
      "payable": false,
      "stateMutability": "view",
      "type": "function"
    },
    {
      "constant": true,
      "inputs": [],
      "name": "beneficiary",
      "outputs": [
        {
          "name": "",
          "type": "address"
        }
      ],
      "payable": false,
      "stateMutability": "view",
      "type": "function"
    },
    {
      "constant": false,
      "inputs": [],
      "name": "unpause",
      "outputs": [],
      "payable": false,
      "stateMutability": "nonpayable",
      "type": "function"
    },
    {
      "constant": true,
      "inputs": [],
      "name": "weiRaised",
      "outputs": [
        {
          "name": "",
          "type": "uint256"
        }
      ],
      "payable": false,
      "stateMutability": "view",
      "type": "function"
    },
    {
      "constant": true,
      "inputs": [
        {
          "name": "",
          "type": "address"
        }
      ],
      "name": "contributions",
      "outputs": [
        {
          "name": "",
          "type": "uint256"
        }
      ],
      "payable": false,
      "stateMutability": "view",
      "type": "function"
    },
    {
      "constant": true,
      "inputs": [],
      "name": "aAmount",
      "outputs": [
        {
          "name": "",
          "type": "uint256"
        }
      ],
      "payable": false,
      "stateMutability": "view",
      "type": "function"
    },
    {
      "constant": false,
      "inputs": [],
      "name": "buyTokensAList",
      "outputs": [],
      "payable": true,
      "stateMutability": "payable",
      "type": "function"
    },
    {
      "constant": true,
      "inputs": [],
      "name": "bAmount",
      "outputs": [
        {
          "name": "",
          "type": "uint256"
        }
      ],
      "payable": false,
      "stateMutability": "view",
      "type": "function"
    },
    {
      "constant": true,
      "inputs": [],
      "name": "paused",
      "outputs": [
        {
          "name": "",
          "type": "bool"
        }
      ],
      "payable": false,
      "stateMutability": "view",
      "type": "function"
    },
    {
      "constant": false,
      "inputs": [
        {
          "name": "users",
          "type": "address[]"
        }
      ],
      "name": "whitelistTierB",
      "outputs": [],
      "payable": false,
      "stateMutability": "nonpayable",
      "type": "function"
    },
    {
      "constant": false,
      "inputs": [],
      "name": "buyTokensCList",
      "outputs": [],
      "payable": true,
      "stateMutability": "payable",
      "type": "function"
    },
    {
      "constant": false,
      "inputs": [],
      "name": "ownerSafeWithdrawal",
      "outputs": [],
      "payable": false,
      "stateMutability": "nonpayable",
      "type": "function"
    },
    {
      "constant": true,
      "inputs": [],
      "name": "startTime",
      "outputs": [
        {
          "name": "",
          "type": "uint256"
        }
      ],
      "payable": false,
      "stateMutability": "view",
      "type": "function"
    },
    {
      "constant": false,
      "inputs": [],
      "name": "pause",
      "outputs": [],
      "payable": false,
      "stateMutability": "nonpayable",
      "type": "function"
    },
    {
      "constant": false,
      "inputs": [],
      "name": "buyTokensBList",
      "outputs": [],
      "payable": true,
      "stateMutability": "payable",
      "type": "function"
    },
    {
      "constant": false,
      "inputs": [
        {
          "name": "users",
          "type": "address[]"
        }
      ],
      "name": "whitelistTierD",
      "outputs": [],
      "payable": false,
      "stateMutability": "nonpayable",
      "type": "function"
    },
    {
      "constant": false,
      "inputs": [
        {
          "name": "_to",
          "type": "address"
        },
        {
          "name": "amountWei",
          "type": "uint256"
        },
        {
          "name": "amountAttoBee",
          "type": "uint256"
        }
      ],
      "name": "allocateTokens",
      "outputs": [],
      "payable": false,
      "stateMutability": "nonpayable",
      "type": "function"
    },
    {
      "constant": true,
      "inputs": [],
      "name": "owner",
      "outputs": [
        {
          "name": "",
          "type": "address"
        }
      ],
      "payable": false,
      "stateMutability": "view",
      "type": "function"
    },
    {
      "constant": false,
      "inputs": [
        {
          "name": "users",
          "type": "address[]"
        }
      ],
      "name": "whitelistTierA",
      "outputs": [],
      "payable": false,
      "stateMutability": "nonpayable",
      "type": "function"
    },
    {
      "constant": false,
      "inputs": [],
      "name": "endOffering",
      "outputs": [],
      "payable": false,
      "stateMutability": "nonpayable",
      "type": "function"
    },
    {
      "constant": true,
      "inputs": [
        {
          "name": "",
          "type": "address"
        }
      ],
      "name": "whitelistB",
      "outputs": [
        {
          "name": "",
          "type": "bool"
        }
      ],
      "payable": false,
      "stateMutability": "view",
      "type": "function"
    },
    {
      "constant": false,
      "inputs": [],
      "name": "buy",
      "outputs": [],
      "payable": true,
      "stateMutability": "payable",
      "type": "function"
    },
    {
      "constant": true,
      "inputs": [],
      "name": "stage",
      "outputs": [
        {
          "name": "",
          "type": "uint8"
        }
      ],
      "payable": false,
      "stateMutability": "view",
      "type": "function"
    },
    {
      "constant": true,
      "inputs": [],
      "name": "baseCap",
      "outputs": [
        {
          "name": "",
          "type": "uint256"
        }
      ],
      "payable": false,
      "stateMutability": "view",
      "type": "function"
    },
    {
      "constant": false,
      "inputs": [
        {
          "name": "durationInSeconds",
          "type": "uint256"
        }
      ],
      "name": "startOffering",
      "outputs": [],
      "payable": false,
      "stateMutability": "nonpayable",
      "type": "function"
    },
    {
      "constant": true,
      "inputs": [],
      "name": "currentTime",
      "outputs": [
        {
          "name": "_time",
          "type": "uint256"
        }
      ],
      "payable": false,
      "stateMutability": "view",
      "type": "function"
    },
    {
      "constant": true,
      "inputs": [
        {
          "name": "",
          "type": "address"
        }
      ],
      "name": "whitelistC",
      "outputs": [
        {
          "name": "",
          "type": "bool"
        }
      ],
      "payable": false,
      "stateMutability": "view",
      "type": "function"
    },
    {
      "constant": true,
      "inputs": [],
      "name": "FUNDING_ETH_HARD_CAP",
      "outputs": [
        {
          "name": "",
          "type": "uint256"
        }
      ],
      "payable": false,
      "stateMutability": "view",
      "type": "function"
    },
    {
      "constant": false,
      "inputs": [],
      "name": "buyTokensDList",
      "outputs": [],
      "payable": true,
      "stateMutability": "payable",
      "type": "function"
    },
    {
      "constant": true,
      "inputs": [],
      "name": "hasEnded",
      "outputs": [
        {
          "name": "",
          "type": "bool"
        }
      ],
      "payable": false,
      "stateMutability": "view",
      "type": "function"
    },
    {
      "constant": false,
      "inputs": [
        {
          "name": "newOwner",
          "type": "address"
        }
      ],
      "name": "transferOwnership",
      "outputs": [],
      "payable": false,
      "stateMutability": "nonpayable",
      "type": "function"
    },
    {
      "constant": false,
      "inputs": [
        {
          "name": "users",
          "type": "address[]"
        }
      ],
      "name": "whitelistTierC",
      "outputs": [],
      "payable": false,
      "stateMutability": "nonpayable",
      "type": "function"
    },
    {
      "constant": true,
      "inputs": [],
      "name": "doubleTime",
      "outputs": [
        {
          "name": "",
          "type": "uint256"
        }
      ],
      "payable": false,
      "stateMutability": "view",
      "type": "function"
    },
    {
      "constant": true,
      "inputs": [],
      "name": "dAmount",
      "outputs": [
        {
          "name": "",
          "type": "uint256"
        }
      ],
      "payable": false,
      "stateMutability": "view",
      "type": "function"
    },
    {
      "constant": false,
      "inputs": [
        {
          "name": "_to",
          "type": "address[]"
        },
        {
          "name": "amountWei",
          "type": "uint256[]"
        },
        {
          "name": "amountAttoBee",
          "type": "uint256[]"
        }
      ],
      "name": "allocateTokensArray",
      "outputs": [],
      "payable": false,
      "stateMutability": "nonpayable",
      "type": "function"
    },
    {
      "constant": true,
      "inputs": [],
      "name": "cAmount",
      "outputs": [
        {
          "name": "",
          "type": "uint256"
        }
      ],
      "payable": false,
      "stateMutability": "view",
      "type": "function"
    },
    {
      "constant": true,
      "inputs": [],
      "name": "token",
      "outputs": [
        {
          "name": "",
          "type": "address"
        }
      ],
      "payable": false,
      "stateMutability": "view",
      "type": "function"
    },
    {
      "inputs": [
        {
          "name": "_rate",
          "type": "uint256"
        },
        {
          "name": "_beneficiary",
          "type": "address"
        },
        {
          "name": "_baseCap",
          "type": "uint256"
        },
        {
          "name": "tokenAddress",
          "type": "address"
        }
      ],
      "payable": false,
      "stateMutability": "nonpayable",
      "type": "constructor"
    },
    {
      "payable": true,
      "stateMutability": "payable",
      "type": "fallback"
    },
    {
      "anonymous": false,
      "inputs": [
        {
          "indexed": true,
          "name": "purchaser",
          "type": "address"
        },
        {
          "indexed": true,
          "name": "_beneficiary",
          "type": "address"
        },
        {
          "indexed": false,
          "name": "value",
          "type": "uint256"
        },
        {
          "indexed": false,
          "name": "amount",
          "type": "uint256"
        }
      ],
      "name": "TokenPurchase",
      "type": "event"
    },
    {
      "anonymous": false,
      "inputs": [],
      "name": "Pause",
      "type": "event"
    },
    {
      "anonymous": false,
      "inputs": [],
      "name": "Unpause",
      "type": "event"
    },
    {
      "anonymous": false,
      "inputs": [
        {
          "indexed": true,
          "name": "previousOwner",
          "type": "address"
        },
        {
          "indexed": true,
          "name": "newOwner",
          "type": "address"
        }
      ],
      "name": "OwnershipTransferred",
      "type": "event"
    }
  ],
  "bytecode": "0x606060405260008060146101000a81548160ff021916908315150217905550341561002957600080fd5b60405160808061254e83398101604052808051906020019091908051906020019091908051906020019091908051906020019091905050336000806101000a81548173ffffffffffffffffffffffffffffffffffffffff021916908373ffffffffffffffffffffffffffffffffffffffff1602179055506000841115156100af57600080fd5b600073ffffffffffffffffffffffffffffffffffffffff168373ffffffffffffffffffffffffffffffffffffffff16141515156100eb57600080fd5b600073ffffffffffffffffffffffffffffffffffffffff168173ffffffffffffffffffffffffffffffffffffffff161415151561012757600080fd5b80600460006101000a81548173ffffffffffffffffffffffffffffffffffffffff021916908373ffffffffffffffffffffffffffffffffffffffff16021790555067016345785d8a00008202600681905550601e60065402600a81905550601460065402600b81905550600f60065402600c81905550600a60065402600d819055508360058190555082600360006101000a81548173ffffffffffffffffffffffffffffffffffffffff021916908373ffffffffffffffffffffffffffffffffffffffff1602179055506000600e60006101000a81548160ff0219169083600381111561021057fe5b021790555050505050612326806102286000396000f3006060604052600436106101f9576000357c0100000000000000000000000000000000000000000000000000000000900463ffffffff168063129e77be14610203578063162d22031461025457806316fdd5731461027d5780632c4e722e146102ce5780633197cbb6146102f757806338af3eed146103205780633f4ba83a146103755780634042b66f1461038a57806342e94c90146103b357806343381a06146104005780634fdff06d146104295780635870cf2f146104335780635c975abb1461045c578063690097ea1461048957806372bbe5d2146104e3578063782e34c9146104ed57806378e97925146105025780638456cb591461052b5780638b919dfc146105405780638c58a8dd1461054a5780638d3f0ed5146105a45780638da5cb5b146105ef5780639a78a4aa146106445780639be3b2861461069e578063a61000b9146106b3578063a6f2ae3a14610704578063c040e6b81461070e578063cbbcf80214610745578063cd863e251461076e578063d18e81b314610791578063e071cacf146107ba578063e072830c1461080b578063e156291114610834578063ecb70fb71461083e578063f2fde38b1461086b578063f4a2a42e146108a4578063f4d6c85a146108fe578063f598395e14610927578063f8abc3b514610950578063f9cdc753146109a6578063fc0c546a146109cf575b610201610a24565b005b341561020e57600080fd5b61023a600480803573ffffffffffffffffffffffffffffffffffffffff16906020019091905050610bfc565b604051808215151515815260200191505060405180910390f35b341561025f57600080fd5b610267610c1c565b6040518082815260200191505060405180910390f35b341561028857600080fd5b6102b4600480803573ffffffffffffffffffffffffffffffffffffffff16906020019091905050610c22565b604051808215151515815260200191505060405180910390f35b34156102d957600080fd5b6102e1610c42565b6040518082815260200191505060405180910390f35b341561030257600080fd5b61030a610c48565b6040518082815260200191505060405180910390f35b341561032b57600080fd5b610333610c4e565b604051808273ffffffffffffffffffffffffffffffffffffffff1673ffffffffffffffffffffffffffffffffffffffff16815260200191505060405180910390f35b341561038057600080fd5b610388610c74565b005b341561039557600080fd5b61039d610d32565b6040518082815260200191505060405180910390f35b34156103be57600080fd5b6103ea600480803573ffffffffffffffffffffffffffffffffffffffff16906020019091905050610d38565b6040518082815260200191505060405180910390f35b341561040b57600080fd5b610413610d50565b6040518082815260200191505060405180910390f35b610431610d56565b005b341561043e57600080fd5b610446610e0d565b6040518082815260200191505060405180910390f35b341561046757600080fd5b61046f610e13565b604051808215151515815260200191505060405180910390f35b341561049457600080fd5b6104e1600480803590602001908201803590602001908080602002602001604051908101604052809392919081815260200183836020028082843782019150505050505091905050610e26565b005b6104eb610f1d565b005b34156104f857600080fd5b610500610fd4565b005b341561050d57600080fd5b6105156110b0565b6040518082815260200191505060405180910390f35b341561053657600080fd5b61053e6110b6565b005b610548611176565b005b341561055557600080fd5b6105a260048080359060200190820180359060200190808060200260200160405190810160405280939291908181526020018383602002808284378201915050505050509190505061122d565b005b34156105af57600080fd5b6105ed600480803573ffffffffffffffffffffffffffffffffffffffff16906020019091908035906020019091908035906020019091905050611324565b005b34156105fa57600080fd5b61060261160b565b604051808273ffffffffffffffffffffffffffffffffffffffff1673ffffffffffffffffffffffffffffffffffffffff16815260200191505060405180910390f35b341561064f57600080fd5b61069c600480803590602001908201803590602001908080602002602001604051908101604052809392919081815260200183836020028082843782019150505050505091905050611630565b005b34156106a957600080fd5b6106b1611727565b005b34156106be57600080fd5b6106ea600480803573ffffffffffffffffffffffffffffffffffffffff169060200190919050506117e5565b604051808215151515815260200191505060405180910390f35b61070c610a24565b005b341561071957600080fd5b610721611805565b6040518082600381111561073157fe5b60ff16815260200191505060405180910390f35b341561075057600080fd5b610758611818565b6040518082815260200191505060405180910390f35b341561077957600080fd5b61078f600480803590602001909190505061181e565b005b341561079c57600080fd5b6107a4611904565b6040518082815260200191505060405180910390f35b34156107c557600080fd5b6107f1600480803573ffffffffffffffffffffffffffffffffffffffff1690602001909190505061190c565b604051808215151515815260200191505060405180910390f35b341561081657600080fd5b61081e61192c565b6040518082815260200191505060405180910390f35b61083c61193a565b005b341561084957600080fd5b6108516119f1565b604051808215151515815260200191505060405180910390f35b341561087657600080fd5b6108a2600480803573ffffffffffffffffffffffffffffffffffffffff169060200190919050506119fd565b005b34156108af57600080fd5b6108fc600480803590602001908201803590602001908080602002602001604051908101604052809392919081815260200183836020028082843782019150505050505091905050611b52565b005b341561090957600080fd5b610911611c49565b6040518082815260200191505060405180910390f35b341561093257600080fd5b61093a611c4f565b6040518082815260200191505060405180910390f35b341561095b57600080fd5b6109a46004808035906020019082018035906020019190919290803590602001908201803590602001919091929080359060200190820180359060200191909192905050611c55565b005b34156109b157600080fd5b6109b9611d5d565b6040518082815260200191505060405180910390f35b34156109da57600080fd5b6109e2611d63565b604051808273ffffffffffffffffffffffffffffffffffffffff1673ffffffffffffffffffffffffffffffffffffffff16815260200191505060405180910390f35b600060149054906101000a900460ff16151515610a4057600080fd5b6001806003811115610a4e57fe5b600e60009054906101000a900460ff166003811115610a6957fe5b141515610a7557600080fd5b600f60003373ffffffffffffffffffffffffffffffffffffffff1673ffffffffffffffffffffffffffffffffffffffff16815260200190815260200160002060009054906101000a900460ff1615610ad457610acf610d56565b610bf9565b601060003373ffffffffffffffffffffffffffffffffffffffff1673ffffffffffffffffffffffffffffffffffffffff16815260200190815260200160002060009054906101000a900460ff1615610b3357610b2e611176565b610bf8565b601160003373ffffffffffffffffffffffffffffffffffffffff1673ffffffffffffffffffffffffffffffffffffffff16815260200190815260200160002060009054906101000a900460ff1615610b9257610b8d610f1d565b610bf7565b601260003373ffffffffffffffffffffffffffffffffffffffff1673ffffffffffffffffffffffffffffffffffffffff16815260200190815260200160002060009054906101000a900460ff1615610bf157610bec61193a565b610bf6565b600080fd5b5b5b5b50565b600f6020528060005260406000206000915054906101000a900460ff1681565b60095481565b60126020528060005260406000206000915054906101000a900460ff1681565b60055481565b60025481565b600360009054906101000a900473ffffffffffffffffffffffffffffffffffffffff1681565b6000809054906101000a900473ffffffffffffffffffffffffffffffffffffffff1673ffffffffffffffffffffffffffffffffffffffff163373ffffffffffffffffffffffffffffffffffffffff16141515610ccf57600080fd5b600060149054906101000a900460ff161515610cea57600080fd5b60008060146101000a81548160ff0219169083151502179055507f7805862f689e2f13df9f062ff482ad3ad112aca9e0847911ed832e158c525b3360405160405180910390a1565b60075481565b60136020528060005260406000206000915090505481565b600a5481565b600060149054906101000a900460ff16151515610d7257600080fd5b600f60003373ffffffffffffffffffffffffffffffffffffffff1673ffffffffffffffffffffffffffffffffffffffff16815260200190815260200160002060009054906101000a900460ff161515610dca57600080fd5b6001806003811115610dd857fe5b600e60009054906101000a900460ff166003811115610df357fe5b141515610dff57600080fd5b610e0a600a54611d89565b50565b600b5481565b600060149054906101000a900460ff1681565b60008060009054906101000a900473ffffffffffffffffffffffffffffffffffffffff1673ffffffffffffffffffffffffffffffffffffffff163373ffffffffffffffffffffffffffffffffffffffff16141515610e8357600080fd5b600090505b81518163ffffffff161015610f1957600160106000848463ffffffff16815181101515610eb157fe5b9060200190602002015173ffffffffffffffffffffffffffffffffffffffff1673ffffffffffffffffffffffffffffffffffffffff16815260200190815260200160002060006101000a81548160ff0219169083151502179055508080600101915050610e88565b5050565b600060149054906101000a900460ff16151515610f3957600080fd5b601160003373ffffffffffffffffffffffffffffffffffffffff1673ffffffffffffffffffffffffffffffffffffffff16815260200190815260200160002060009054906101000a900460ff161515610f9157600080fd5b6001806003811115610f9f57fe5b600e60009054906101000a900460ff166003811115610fba57fe5b141515610fc657600080fd5b610fd1600c54611d89565b50565b60008060009054906101000a900473ffffffffffffffffffffffffffffffffffffffff1673ffffffffffffffffffffffffffffffffffffffff163373ffffffffffffffffffffffffffffffffffffffff1614151561103157600080fd5b3073ffffffffffffffffffffffffffffffffffffffff16319050600360009054906101000a900473ffffffffffffffffffffffffffffffffffffffff1673ffffffffffffffffffffffffffffffffffffffff166108fc829081150290604051600060405180830381858888f1935050505015156110ad57600080fd5b50565b60015481565b6000809054906101000a900473ffffffffffffffffffffffffffffffffffffffff1673ffffffffffffffffffffffffffffffffffffffff163373ffffffffffffffffffffffffffffffffffffffff1614151561111157600080fd5b600060149054906101000a900460ff1615151561112d57600080fd5b6001600060146101000a81548160ff0219169083151502179055507f6985a02210a168e66602d3235cb6db0e70f92b3ba4d376a33c0f3d9434bff62560405160405180910390a1565b600060149054906101000a900460ff1615151561119257600080fd5b601060003373ffffffffffffffffffffffffffffffffffffffff1673ffffffffffffffffffffffffffffffffffffffff16815260200190815260200160002060009054906101000a900460ff1615156111ea57600080fd5b60018060038111156111f857fe5b600e60009054906101000a900460ff16600381111561121357fe5b14151561121f57600080fd5b61122a600b54611d89565b50565b60008060009054906101000a900473ffffffffffffffffffffffffffffffffffffffff1673ffffffffffffffffffffffffffffffffffffffff163373ffffffffffffffffffffffffffffffffffffffff1614151561128a57600080fd5b600090505b81518163ffffffff16101561132057600160126000848463ffffffff168151811015156112b857fe5b9060200190602002015173ffffffffffffffffffffffffffffffffffffffff1673ffffffffffffffffffffffffffffffffffffffff16815260200190815260200160002060006101000a81548160ff021916908315150217905550808060010191505061128f565b5050565b6000809054906101000a900473ffffffffffffffffffffffffffffffffffffffff1673ffffffffffffffffffffffffffffffffffffffff163373ffffffffffffffffffffffffffffffffffffffff1614151561137f57600080fd5b6113948260075461220e90919063ffffffff16565b6007819055506113ec82601360008673ffffffffffffffffffffffffffffffffffffffff1673ffffffffffffffffffffffffffffffffffffffff1681526020019081526020016000205461220e90919063ffffffff16565b601360008573ffffffffffffffffffffffffffffffffffffffff1673ffffffffffffffffffffffffffffffffffffffff16815260200190815260200160002081905550600460009054906101000a900473ffffffffffffffffffffffffffffffffffffffff1673ffffffffffffffffffffffffffffffffffffffff166323b872dd600460009054906101000a900473ffffffffffffffffffffffffffffffffffffffff1673ffffffffffffffffffffffffffffffffffffffff16638da5cb5b6000604051602001526040518163ffffffff167c0100000000000000000000000000000000000000000000000000000000028152600401602060405180830381600087803b15156114fb57600080fd5b6102c65a03f1151561150c57600080fd5b5050506040518051905085846000604051602001526040518463ffffffff167c0100000000000000000000000000000000000000000000000000000000028152600401808473ffffffffffffffffffffffffffffffffffffffff1673ffffffffffffffffffffffffffffffffffffffff1681526020018373ffffffffffffffffffffffffffffffffffffffff1673ffffffffffffffffffffffffffffffffffffffff1681526020018281526020019350505050602060405180830381600087803b15156115d857600080fd5b6102c65a03f115156115e957600080fd5b5050506040518051905015156115fe57600080fd5b61160661222c565b505050565b6000809054906101000a900473ffffffffffffffffffffffffffffffffffffffff1681565b60008060009054906101000a900473ffffffffffffffffffffffffffffffffffffffff1673ffffffffffffffffffffffffffffffffffffffff163373ffffffffffffffffffffffffffffffffffffffff1614151561168d57600080fd5b600090505b81518163ffffffff161015611723576001600f6000848463ffffffff168151811015156116bb57fe5b9060200190602002015173ffffffffffffffffffffffffffffffffffffffff1673ffffffffffffffffffffffffffffffffffffffff16815260200190815260200160002060006101000a81548160ff0219169083151502179055508080600101915050611692565b5050565b6000809054906101000a900473ffffffffffffffffffffffffffffffffffffffff1673ffffffffffffffffffffffffffffffffffffffff163373ffffffffffffffffffffffffffffffffffffffff1614151561178257600080fd5b600180600381111561179057fe5b600e60009054906101000a900460ff1660038111156117ab57fe5b1415156117b757600080fd5b426002819055506002600e60006101000a81548160ff021916908360038111156117dd57fe5b021790555050565b60106020528060005260406000206000915054906101000a900460ff1681565b600e60009054906101000a900460ff1681565b60065481565b6000809054906101000a900473ffffffffffffffffffffffffffffffffffffffff1673ffffffffffffffffffffffffffffffffffffffff163373ffffffffffffffffffffffffffffffffffffffff1614151561187957600080fd5b600080600381111561188757fe5b600e60009054906101000a900460ff1660038111156118a257fe5b1415156118ae57600080fd5b6001600e60006101000a81548160ff021916908360038111156118cd57fe5b0217905550426001819055506202a30060015401600881905550620546006001540160098190555081600154016002819055505050565b600042905090565b60116020528060005260406000206000915054906101000a900460ff1681565b6901b1ae4d6e2ef500000081565b600060149054906101000a900460ff1615151561195657600080fd5b601260003373ffffffffffffffffffffffffffffffffffffffff1673ffffffffffffffffffffffffffffffffffffffff16815260200190815260200160002060009054906101000a900460ff1615156119ae57600080fd5b60018060038111156119bc57fe5b600e60009054906101000a900460ff1660038111156119d757fe5b1415156119e357600080fd5b6119ee600d54611d89565b50565b60006002544211905090565b6000809054906101000a900473ffffffffffffffffffffffffffffffffffffffff1673ffffffffffffffffffffffffffffffffffffffff163373ffffffffffffffffffffffffffffffffffffffff16141515611a5857600080fd5b600073ffffffffffffffffffffffffffffffffffffffff168173ffffffffffffffffffffffffffffffffffffffff1614151515611a9457600080fd5b8073ffffffffffffffffffffffffffffffffffffffff166000809054906101000a900473ffffffffffffffffffffffffffffffffffffffff1673ffffffffffffffffffffffffffffffffffffffff167f8be0079c531659141344cd1fd0a4f28419497f9722a3daafe3b4186f6b6457e060405160405180910390a3806000806101000a81548173ffffffffffffffffffffffffffffffffffffffff021916908373ffffffffffffffffffffffffffffffffffffffff16021790555050565b60008060009054906101000a900473ffffffffffffffffffffffffffffffffffffffff1673ffffffffffffffffffffffffffffffffffffffff163373ffffffffffffffffffffffffffffffffffffffff16141515611baf57600080fd5b600090505b81518163ffffffff161015611c4557600160116000848463ffffffff16815181101515611bdd57fe5b9060200190602002015173ffffffffffffffffffffffffffffffffffffffff1673ffffffffffffffffffffffffffffffffffffffff16815260200190815260200160002060006101000a81548160ff0219169083151502179055508080600101915050611bb4565b5050565b60085481565b600d5481565b60008060009054906101000a900473ffffffffffffffffffffffffffffffffffffffff1673ffffffffffffffffffffffffffffffffffffffff163373ffffffffffffffffffffffffffffffffffffffff16141515611cb257600080fd5b8484905087879050141515611cc657600080fd5b8282905087879050141515611cda57600080fd5b600090505b86869050811015611d5457611d478787838181101515611cfb57fe5b9050602002013573ffffffffffffffffffffffffffffffffffffffff168686848181101515611d2657fe5b905060200201358585858181101515611d3b57fe5b90506020020135611324565b8080600101915050611cdf565b50505050505050565b600c5481565b600460009054906101000a900473ffffffffffffffffffffffffffffffffffffffff1681565b6000806000339250600073ffffffffffffffffffffffffffffffffffffffff168373ffffffffffffffffffffffffffffffffffffffff1614151515611dcd57600080fd5b611dd561226f565b1515611de057600080fd5b349150611df8600554836122bf90919063ffffffff16565b9050600854421015611e58578382601360008673ffffffffffffffffffffffffffffffffffffffff1673ffffffffffffffffffffffffffffffffffffffff1681526020019081526020016000205401101515611e5357600080fd5b611f14565b600954421015611eb9576002840282601360008673ffffffffffffffffffffffffffffffffffffffff1673ffffffffffffffffffffffffffffffffffffffff1681526020019081526020016000205401101515611eb457600080fd5b611f13565b69065a4da25d3016c0000082601360008673ffffffffffffffffffffffffffffffffffffffff1673ffffffffffffffffffffffffffffffffffffffff1681526020019081526020016000205401101515611f1257600080fd5b5b5b611f298260075461220e90919063ffffffff16565b600781905550611f8182601360008673ffffffffffffffffffffffffffffffffffffffff1673ffffffffffffffffffffffffffffffffffffffff1681526020019081526020016000205461220e90919063ffffffff16565b601360008573ffffffffffffffffffffffffffffffffffffffff1673ffffffffffffffffffffffffffffffffffffffff16815260200190815260200160002081905550600460009054906101000a900473ffffffffffffffffffffffffffffffffffffffff1673ffffffffffffffffffffffffffffffffffffffff166323b872dd600460009054906101000a900473ffffffffffffffffffffffffffffffffffffffff1673ffffffffffffffffffffffffffffffffffffffff16638da5cb5b6000604051602001526040518163ffffffff167c0100000000000000000000000000000000000000000000000000000000028152600401602060405180830381600087803b151561209057600080fd5b6102c65a03f115156120a157600080fd5b5050506040518051905085846000604051602001526040518463ffffffff167c0100000000000000000000000000000000000000000000000000000000028152600401808473ffffffffffffffffffffffffffffffffffffffff1673ffffffffffffffffffffffffffffffffffffffff1681526020018373ffffffffffffffffffffffffffffffffffffffff1673ffffffffffffffffffffffffffffffffffffffff1681526020018281526020019350505050602060405180830381600087803b151561216d57600080fd5b6102c65a03f1151561217e57600080fd5b50505060405180519050151561219357600080fd5b8273ffffffffffffffffffffffffffffffffffffffff163373ffffffffffffffffffffffffffffffffffffffff167f623b3804fa71d67900d064613da8f94b9617215ee90799290593e1745087ad188484604051808381526020018281526020019250505060405180910390a361220861222c565b50505050565b600080828401905083811015151561222257fe5b8091505092915050565b6901b1ae4d6e2ef500000060075410151561226d57426002819055506002600e60006101000a81548160ff0219169083600381111561226757fe5b02179055505b565b600080600080600154421015801561228957506002544211155b9250600034141591506901b1ae4d6e2ef5000000600754111590508280156122ae5750815b80156122b75750805b935050505090565b60008060008414156122d457600091506122f3565b82840290508284828115156122e557fe5b041415156122ef57fe5b8091505b50929150505600a165627a7a723058207ec885014057081fcc879b388cc90547ed1d496c1d02d81c29847451850c34eb0029",
  "source": "pragma solidity ^0.4.18;\nimport \"./BeeToken.sol\";\nimport \"../node_modules/zeppelin-solidity/contracts/lifecycle/Pausable.sol\";\n\ncontract BeeTokenOffering is Pausable {\n\n\n    using SafeMath for uint256;\n    using SafeMath for uint;\n\n    //uint public constant GAS_LIMIT_IN_WEI = 50000000000 wei;\n    //bool private reentryLock = false;\n\n    // Start and end timestamps where investments are allowed (both inclusive)\n    uint256 public startTime;\n    uint256 public endTime;\n\n    // Address where funds are collected\n    address public beneficiary;\n\n    // Token to be sold\n    BeeToken public token;\n\n    // Tokens per ether\n    // 2000 Bee($0.20) to Eth($400) => rate = 2000 ~ Update at time of offering\n    uint256 public rate;\n\n    // base cap for contributions in Eth\n    uint256 public baseCap;\n\n    // Amount of raised in wei (10**18)\n    uint256 public weiRaised;\n\n    // Replace with real start and end times based off of strategy document\n    uint256 public doubleTime;\n    uint256 public uncappedTime;\n\n    // Contribution limits in Eth per tier\n    uint public aAmount;\n    uint public bAmount;\n    uint public cAmount;\n    uint public dAmount;\n\n    // Funding cap in ETH. Change to equal $5M at time of token offering\n    uint public constant FUNDING_ETH_HARD_CAP = 8000 * 1 ether;\n    // Reserve fund subject to change\n\n    Stages public stage;\n\n    enum Stages { \n        Setup,\n        OfferingStarted,\n        OfferingEnded,\n        Distributed\n    }\n\n    // Event for token purchase logging\n    // Purchaser - who paid for the tokens\n    // Beneficiary - reviever of ether\n    // Value - weis paid for purchase\n    // Amount - amount of tokens purchased\n    event TokenPurchase(\n        address indexed purchaser, \n        address indexed _beneficiary, \n        uint256 value, uint256 amount\n    );\n\n    modifier onlyOwner {\n        require(msg.sender == owner);\n        _;\n    }\n\n    modifier atStage(Stages _stage) {\n        require(stage == _stage);\n        _;\n    }\n\n    modifier aLister {\n        require(whitelistA[msg.sender]);\n        _;\n    }\n\n    modifier bLister {\n        require(whitelistB[msg.sender]);\n        _;\n    }\n\n    modifier cLister {\n        require(whitelistC[msg.sender]);\n        _;\n    }\n\n    modifier dLister {\n        require(whitelistD[msg.sender]);\n        _;\n    }\n    /*\n    // Recursive call protection \n    modifier nonReentrant() {\n        require(!reentryLock);\n        reentryLock = true;\n        _;\n        reentryLock = false;\n    }\n    */\n\n    mapping(address => bool) public whitelistA;\n    mapping(address => bool) public whitelistB;\n    mapping(address => bool) public whitelistC;\n    mapping(address => bool) public whitelistD;\n    mapping(address => uint) public contributions;\n\n    function BeeTokenOffering(\n        uint256 _rate, \n        address _beneficiary, \n        uint256 _baseCap,\n        address tokenAddress) public {\n\n        require(_rate > 0);\n        require(_beneficiary != address(0));\n\n        require(tokenAddress != address(0));\n        token = BeeToken(tokenAddress);\n\n        baseCap = _baseCap * (10 ** 17); // convert from Eth to Decawei\n        aAmount = baseCap * 30; // Contribution cap per tier in wei\n        bAmount = baseCap * 20;\n        cAmount = baseCap * 15;\n        dAmount = baseCap * 10;\n        rate = _rate; // BEE to Ether\n        beneficiary = _beneficiary;\n        stage = Stages.Setup;\n        // Add event for convenience\n    }\n\n    // Fallback function can be used to buy tokens\n    function () public payable {\n        buy();\n    }\n\n    function ownerSafeWithdrawal() external onlyOwner {\n        uint balanceToSend = this.balance;\n        beneficiary.transfer(balanceToSend);\n    }\n\n    // Assign new user tiers\n    function whitelistTierA (address[] users) public onlyOwner {\n        for (uint32 i = 0; i < users.length; i++) {\n            whitelistA[users[i]] = true;\n        }\n    }\n\n    function whitelistTierB (address[] users) public onlyOwner {\n        for (uint32 i = 0; i < users.length; i++) {\n            whitelistB[users[i]] = true;\n        }\n    }\n\n    function whitelistTierC (address[] users) public onlyOwner {\n        for (uint32 i = 0; i < users.length; i++) {\n            whitelistC[users[i]] = true;\n        }\n    }\n\n    function whitelistTierD (address[] users) public onlyOwner {\n        for (uint32 i = 0; i < users.length; i++) {\n            whitelistD[users[i]] = true;\n        }\n    }        \n\n    function startOffering(uint durationInSeconds) public onlyOwner atStage(Stages.Setup) {\n        stage = Stages.OfferingStarted;\n        startTime = now;\n        doubleTime = startTime + 48 hours;\n        uncappedTime = startTime + 96 hours;\n        endTime = startTime + durationInSeconds;\n        // Add event for convenience\n    }\n\n    // Owner can terminate token offering after it begins\n    function endOffering() public onlyOwner atStage(Stages.OfferingStarted) {\n        endTime = now;\n        stage = Stages.OfferingEnded;\n        // Add event for convenience\n    }\n    \n    function buyTokensAList() public payable whenNotPaused aLister atStage(Stages.OfferingStarted) {\n        buyTokensList(aAmount);\n    }\n    \n    function buyTokensBList() public payable whenNotPaused bLister atStage(Stages.OfferingStarted) {\n        buyTokensList(bAmount);\n    }\n            \n    function buyTokensCList() public payable whenNotPaused cLister atStage(Stages.OfferingStarted) {\n        buyTokensList(cAmount);\n    }\n\n    function buyTokensDList() public payable whenNotPaused dLister atStage(Stages.OfferingStarted) {\n        buyTokensList(dAmount);\n    }\n\n    function buy() public payable whenNotPaused atStage(Stages.OfferingStarted) {\n        if (whitelistA[msg.sender]) {\n            buyTokensAList();\n        } else if (whitelistB[msg.sender]) {\n            buyTokensBList();\n        } else if (whitelistC[msg.sender]) {\n            buyTokensCList();\n        } else if (whitelistD[msg.sender]) {\n            buyTokensDList();\n        } else {\n            revert();\n        }\n    }\n\n    function allocateTokens(address _to, uint amountWei, uint amountAttoBee)\n        public\n        onlyOwner\n    {\n        weiRaised = weiRaised.add(amountWei);\n\n        contributions[_to] = contributions[_to].add(amountWei);\n\n        if (!token.transferFrom(token.owner(), _to, amountAttoBee)) {\n            revert();\n        }\n\n        updateFundingCap();\n    }\n    \n    function allocateTokensArray(address[] _to, uint[] amountWei, uint[] amountAttoBee)\n        external\n        onlyOwner\n    {\n        require(_to.length == amountWei.length);\n        require(_to.length == amountAttoBee.length);\n        for (uint i = 0; i < _to.length; i++) {\n            allocateTokens(_to[i], amountWei[i], amountAttoBee[i]);\n        }\n    }\n    \n    function currentTime() public view returns (uint _time) {\n        return now;\n    }\n    \n    // Return true if ico event has ended\n    function hasEnded() public view returns (bool) {\n        return now > endTime;\n    }\n    \n    function buyTokensList(uint amount) internal {\n        address participant = msg.sender;\n        require(participant != address(0));\n        require(validPurchase());\n\n        uint256 weiAmount = msg.value;\n\n        // Calculate token amount to be distributed\n        uint256 tokens = weiAmount.mul(rate);\n\n        if (now < doubleTime) {\n            require(contributions[participant] + weiAmount < amount);\n        } else if (now < uncappedTime) {\n            require(contributions[participant] + weiAmount < amount*2);\n        } else {\n            require(contributions[participant] + weiAmount < 30000 * 1 ether);\n        }\n        \n        weiRaised = weiRaised.add(weiAmount);\n        contributions[participant] = contributions[participant].add(weiAmount);\n\n        if (!token.transferFrom(token.owner(), participant, tokens)) {\n            revert();\n        }\n        \n        TokenPurchase(msg.sender, participant, weiAmount, tokens);       \n        updateFundingCap();\n    }\n\n    function updateFundingCap() internal {\n        if (weiRaised >= FUNDING_ETH_HARD_CAP) {\n            // Check if the funding cap has been reached\n            endTime = now;\n            stage = Stages.OfferingEnded;\n        }\n    }\n\n    // Return true if the transaction can buy tokens\n    function validPurchase() internal view returns (bool) {\n        bool withinPeriod = now >= startTime && now <= endTime;\n        bool nonZeroPurchase = msg.value != 0;\n        bool withinFunding = weiRaised <= FUNDING_ETH_HARD_CAP;  \n        return withinPeriod && nonZeroPurchase && withinFunding;\n    }\n\n}\n",
  "sourcePath": "/Users/boyxgc/GitHub/BeeToken/smartcontracts/contracts/BeeTokenOffering.sol",
  "compiler": {
    "name": "solc",
    "version": "0.4.18+commit.9cf6e910.Emscripten.clang"
  },
  "schemaVersion": "1.0.1",
  "updatedAt": "2018-01-16T00:35:44.760Z"
}